GAS LISTING C:\Users\DAANBR~1\AppData\Local\Temp/ccDgNm5v.s 			page 1


   1               		.file	"sound.c"
   2               		.arch atmega2561
   3               	__SREG__ = 0x3f
   4               	__SP_H__ = 0x3e
   5               	__SP_L__ = 0x3d
   6               	__tmp_reg__ = 0
   7               	__zero_reg__ = 1
   8               		.global __do_copy_data
   9               		.global __do_clear_bss
  10               		.text
  11               	.global	pauseAlarm
  12               		.type	pauseAlarm, @function
  13               	pauseAlarm:
  14               	/* prologue: frame size=0 */
  15               	/* prologue end (size=0) */
  16 0000 81E0      		ldi r24,lo8(1)
  17 0002 90E0      		ldi r25,hi8(1)
  18 0004 9093 0000 		sts (pause)+1,r25
  19 0008 8093 0000 		sts pause,r24
  20               	/* epilogue: frame size=0 */
  21 000c 0895      		ret
  22               	/* epilogue end (size=1) */
  23               	/* function pauseAlarm size 7 (6) */
  24               		.size	pauseAlarm, .-pauseAlarm
  25               	.global	initPlayer
  26               		.type	initPlayer, @function
  27               	initPlayer:
  28               	/* prologue: frame size=0 */
  29               	/* prologue end (size=0) */
  30 000e 81E0      		ldi r24,lo8(1)
  31 0010 90E0      		ldi r25,hi8(1)
  32               	/* epilogue: frame size=0 */
  33 0012 0895      		ret
  34               	/* epilogue end (size=1) */
  35               	/* function initPlayer size 3 (2) */
  36               		.size	initPlayer, .-initPlayer
  37               	.global	initSound
  38               		.type	initSound, @function
  39               	initSound:
  40               	/* prologue: frame size=0 */
  41               	/* prologue end (size=0) */
  42 0014 0E94 0000 		call VsPlayerInit
  43 0018 8F5F      		subi r24,lo8(-1)
  44 001a 9F4F      		sbci r25,hi8(-1)
  45 001c 01F0      		breq .L6
  46 001e 8FEF      		ldi r24,lo8(-1)
  47 0020 9FEF      		ldi r25,hi8(-1)
  48 0022 0895      		ret
  49               	.L6:
  50 0024 80E0      		ldi r24,lo8(0)
  51 0026 90E0      		ldi r25,hi8(0)
  52 0028 0895      		ret
  53               	/* epilogue: frame size=0 */
  54               	/* epilogue: noreturn */
  55               	/* epilogue end (size=0) */
  56               	/* function initSound size 12 (12) */
  57               		.size	initSound, .-initSound
GAS LISTING C:\Users\DAANBR~1\AppData\Local\Temp/ccDgNm5v.s 			page 2


  58               		.data
  59               	.LC0:
  60 0000 5673 506C 		.string	"VsPlayerKick()"
  60      6179 6572 
  60      4B69 636B 
  60      2829 00
  61               		.text
  62               	.global	StreamPlayer
  63               		.type	StreamPlayer, @function
  64               	StreamPlayer:
  65               	/* prologue: frame size=2 */
  66 002a CF93      		push r28
  67 002c DF93      		push r29
  68 002e CDB7      		in r28,__SP_L__
  69 0030 DEB7      		in r29,__SP_H__
  70 0032 2297      		sbiw r28,2
  71 0034 0FB6      		in __tmp_reg__,__SREG__
  72 0036 F894      		cli
  73 0038 DEBF      		out __SP_H__,r29
  74 003a 0FBE      		out __SREG__,__tmp_reg__
  75 003c CDBF      		out __SP_L__,r28
  76               	/* prologue end (size=10) */
  77 003e 5C01      		movw r10,r24
  78 0040 1A82      		std Y+2,__zero_reg__
  79 0042 1982      		std Y+1,__zero_reg__
  80 0044 80E0      		ldi r24,lo8(8192)
  81 0046 90E2      		ldi r25,hi8(8192)
  82 0048 0E94 0000 		call NutSegBufInit
  83 004c 892B      		or r24,r25
  84 004e 01F0      		breq .L30
  85 0050 80E0      		ldi r24,lo8(0)
  86 0052 0E94 0000 		call VsPlayerInterrupts
  87 0056 182F      		mov r17,r24
  88 0058 0E94 0000 		call NutSegBufReset
  89 005c 812F      		mov r24,r17
  90 005e 0E94 0000 		call VsPlayerInterrupts
  91 0062 0E94 0000 		call VsPlayerInit
  92 0066 8F5F      		subi r24,lo8(-1)
  93 0068 9F4F      		sbci r25,hi8(-1)
  94 006a 01F4      		brne .L30
  95 006c 80E0      		ldi r24,lo8(0)
  96 006e 90E0      		ldi r25,hi8(0)
  97 0070 0E94 0000 		call VsPlayerReset
  98               	.L30:
  99 0074 80E0      		ldi r24,lo8(0)
 100 0076 0E94 0000 		call VsPlayerInterrupts
 101 007a 182F      		mov r17,r24
 102 007c CE01      		movw r24,r28
 103 007e 0196      		adiw r24,1
 104 0080 0E94 0000 		call NutSegBufWriteRequest
 105 0084 6C01      		movw r12,r24
 106 0086 812F      		mov r24,r17
 107 0088 0E94 0000 		call VsPlayerInterrupts
 108 008c 0E94 0000 		call VsGetStatus
 109 0090 8130      		cpi r24,lo8(1)
 110 0092 01F0      		breq .L28
 111 0094 8981      		ldd r24,Y+1
GAS LISTING C:\Users\DAANBR~1\AppData\Local\Temp/ccDgNm5v.s 			page 3


 112 0096 9A81      		ldd r25,Y+2
 113 0098 8050      		subi r24,lo8(1024)
 114 009a 9440      		sbci r25,hi8(1024)
 115 009c 00F4      		brsh .L28
 116 009e 80E0      		ldi r24,lo8(.LC0)
 117 00a0 90E0      		ldi r25,hi8(.LC0)
 118 00a2 0E94 0000 		call puts
 119 00a6 0E94 0000 		call VsPlayerKick
 120 00aa 00C0      		rjmp .L28
 121               	.L17:
 122 00ac 9501      		movw r18,r10
 123 00ae 61E0      		ldi r22,lo8(1)
 124 00b0 70E0      		ldi r23,hi8(1)
 125 00b2 C601      		movw r24,r12
 126 00b4 0E94 0000 		call fread
 127 00b8 7C01      		movw r14,r24
 128 00ba 1816      		cp __zero_reg__,r24
 129 00bc 1906      		cpc __zero_reg__,r25
 130 00be 04F4      		brge .L30
 131 00c0 80E0      		ldi r24,lo8(0)
 132 00c2 0E94 0000 		call VsPlayerInterrupts
 133 00c6 182F      		mov r17,r24
 134 00c8 C701      		movw r24,r14
 135 00ca 0E94 0000 		call NutSegBufWriteCommit
 136 00ce 6C01      		movw r12,r24
 137 00d0 812F      		mov r24,r17
 138 00d2 0E94 0000 		call VsPlayerInterrupts
 139 00d6 8981      		ldd r24,Y+1
 140 00d8 9A81      		ldd r25,Y+2
 141 00da E816      		cp r14,r24
 142 00dc F906      		cpc r15,r25
 143 00de 00F4      		brsh .L19
 144 00e0 80E0      		ldi r24,lo8(512)
 145 00e2 E816      		cp r14,r24
 146 00e4 82E0      		ldi r24,hi8(512)
 147 00e6 F806      		cpc r15,r24
 148 00e8 04F4      		brge .L19
 149 00ea 6AEF      		ldi r22,lo8(250)
 150 00ec 70E0      		ldi r23,hi8(250)
 151 00ee 80E0      		ldi r24,hlo8(250)
 152 00f0 90E0      		ldi r25,hhi8(250)
 153 00f2 0E94 0000 		call NutSleep
 154               	.L19:
 155 00f6 8981      		ldd r24,Y+1
 156 00f8 9A81      		ldd r25,Y+2
 157 00fa 8E19      		sub r24,r14
 158 00fc 9F09      		sbc r25,r15
 159 00fe 9A83      		std Y+2,r25
 160 0100 8983      		std Y+1,r24
 161               	.L28:
 162 0102 4981      		ldd r20,Y+1
 163 0104 5A81      		ldd r21,Y+2
 164 0106 4115      		cp r20,__zero_reg__
 165 0108 5105      		cpc r21,__zero_reg__
 166 010a 01F4      		brne .L17
 167 010c 00C0      		rjmp .L30
 168               	/* epilogue: frame size=2 */
GAS LISTING C:\Users\DAANBR~1\AppData\Local\Temp/ccDgNm5v.s 			page 4


 169               	/* epilogue: noreturn */
 170               	/* epilogue end (size=0) */
 171               	/* function StreamPlayer size 116 (106) */
 172               		.size	StreamPlayer, .-StreamPlayer
 173               		.data
 174               	.LC1:
 175 000f 4267 00   		.string	"Bg"
 176               	.LC2:
 177 0012 506C 6179 		.string	"Play thread created. Device is playing stream now !"
 177      2074 6872 
 177      6561 6420 
 177      6372 6561 
 177      7465 642E 
 178               		.text
 179               	.global	play
 180               		.type	play, @function
 181               	play:
 182               	/* prologue: frame size=0 */
 183               	/* prologue end (size=0) */
 184 010e 20E0      		ldi r18,lo8(512)
 185 0110 32E0      		ldi r19,hi8(512)
 186 0112 AC01      		movw r20,r24
 187 0114 60E0      		ldi r22,lo8(gs(StreamPlayer))
 188 0116 70E0      		ldi r23,hi8(gs(StreamPlayer))
 189 0118 80E0      		ldi r24,lo8(.LC1)
 190 011a 90E0      		ldi r25,hi8(.LC1)
 191 011c 0E94 0000 		call NutThreadCreate
 192 0120 80E0      		ldi r24,lo8(.LC2)
 193 0122 90E0      		ldi r25,hi8(.LC2)
 194 0124 0E94 0000 		call puts
 195 0128 81E0      		ldi r24,lo8(1)
 196 012a 90E0      		ldi r25,hi8(1)
 197               	/* epilogue: frame size=0 */
 198 012c 0895      		ret
 199               	/* epilogue end (size=1) */
 200               	/* function play size 16 (15) */
 201               		.size	play, .-play
 202               		.data
 203               	.LC3:
 204 0046 5472 6967 		.string	"Trigger Alarm Thread"
 204      6765 7220 
 204      416C 6172 
 204      6D20 5468 
 204      7265 6164 
 205               		.text
 206               	.global	triggerAlarm
 207               		.type	triggerAlarm, @function
 208               	triggerAlarm:
 209               	/* prologue: frame size=0 */
 210               	/* prologue end (size=0) */
 211 012e 8091 0000 		lds r24,pause
 212 0132 9091 0000 		lds r25,(pause)+1
 213 0136 892B      		or r24,r25
 214 0138 01F4      		brne .L34
 215 013a 20E0      		ldi r18,lo8(512)
 216 013c 32E0      		ldi r19,hi8(512)
 217 013e 40E0      		ldi r20,lo8(0)
GAS LISTING C:\Users\DAANBR~1\AppData\Local\Temp/ccDgNm5v.s 			page 5


 218 0140 50E0      		ldi r21,hi8(0)
 219 0142 60E0      		ldi r22,lo8(gs(RingAlarm))
 220 0144 70E0      		ldi r23,hi8(gs(RingAlarm))
 221 0146 80E0      		ldi r24,lo8(.LC3)
 222 0148 90E0      		ldi r25,hi8(.LC3)
 223 014a 0E94 0000 		call NutThreadCreate
 224 014e 0895      		ret
 225               	.L34:
 226 0150 1092 0000 		sts (pause)+1,__zero_reg__
 227 0154 1092 0000 		sts pause,__zero_reg__
 228 0158 0895      		ret
 229               	/* epilogue: frame size=0 */
 230               	/* epilogue: noreturn */
 231               	/* epilogue end (size=0) */
 232               	/* function triggerAlarm size 22 (22) */
 233               		.size	triggerAlarm, .-triggerAlarm
 234               	.global	setVolume
 235               		.type	setVolume, @function
 236               	setVolume:
 237               	/* prologue: frame size=0 */
 238               	/* prologue end (size=0) */
 239 015a 0E94 0000 		call VsSetVolume
 240               	/* epilogue: frame size=0 */
 241 015e 0895      		ret
 242               	/* epilogue end (size=1) */
 243               	/* function setVolume size 3 (2) */
 244               		.size	setVolume, .-setVolume
 245               	.global	RingAlarm
 246               		.type	RingAlarm, @function
 247               	RingAlarm:
 248               	/* prologue: frame size=0 */
 249               	/* prologue end (size=0) */
 250               	.L42:
 251 0160 64EF      		ldi r22,lo8(500)
 252 0162 71E0      		ldi r23,hi8(500)
 253 0164 80E0      		ldi r24,hlo8(500)
 254 0166 90E0      		ldi r25,hhi8(500)
 255 0168 0E94 0000 		call NutSleep
 256 016c 64EF      		ldi r22,lo8(500)
 257 016e 71E0      		ldi r23,hi8(500)
 258 0170 82E3      		ldi r24,lo8(50)
 259 0172 0E94 0000 		call VsBeep
 260 0176 00C0      		rjmp .L43
 261               	.L44:
 262 0178 64EF      		ldi r22,lo8(500)
 263 017a 71E0      		ldi r23,hi8(500)
 264 017c 80E0      		ldi r24,hlo8(500)
 265 017e 90E0      		ldi r25,hhi8(500)
 266 0180 0E94 0000 		call NutSleep
 267               	.L43:
 268 0184 8091 0000 		lds r24,pause
 269 0188 9091 0000 		lds r25,(pause)+1
 270 018c 0197      		sbiw r24,1
 271 018e 01F0      		breq .L44
 272 0190 00C0      		rjmp .L42
 273               	/* epilogue: frame size=0 */
 274               	/* epilogue: noreturn */
GAS LISTING C:\Users\DAANBR~1\AppData\Local\Temp/ccDgNm5v.s 			page 6


 275               	/* epilogue end (size=0) */
 276               	/* function RingAlarm size 26 (26) */
 277               		.size	RingAlarm, .-RingAlarm
 278               	.global	pause
 279               	.global	pause
 280               		.section .bss
 281               		.type	pause, @object
 282               		.size	pause, 2
 283               	pause:
 284 0000 0000      		.skip 2,0
 285               	/* File "source/sound.c": code  205 = 0x00cd ( 191), prologues  10, epilogues   4 */
GAS LISTING C:\Users\DAANBR~1\AppData\Local\Temp/ccDgNm5v.s 			page 7


DEFINED SYMBOLS
                            *ABS*:00000000 sound.c
C:\Users\DAANBR~1\AppData\Local\Temp/ccDgNm5v.s:3      *ABS*:0000003f __SREG__
C:\Users\DAANBR~1\AppData\Local\Temp/ccDgNm5v.s:4      *ABS*:0000003e __SP_H__
C:\Users\DAANBR~1\AppData\Local\Temp/ccDgNm5v.s:5      *ABS*:0000003d __SP_L__
C:\Users\DAANBR~1\AppData\Local\Temp/ccDgNm5v.s:6      *ABS*:00000000 __tmp_reg__
C:\Users\DAANBR~1\AppData\Local\Temp/ccDgNm5v.s:7      *ABS*:00000001 __zero_reg__
C:\Users\DAANBR~1\AppData\Local\Temp/ccDgNm5v.s:13     .text:00000000 pauseAlarm
C:\Users\DAANBR~1\AppData\Local\Temp/ccDgNm5v.s:283    .bss:00000000 pause
C:\Users\DAANBR~1\AppData\Local\Temp/ccDgNm5v.s:27     .text:0000000e initPlayer
C:\Users\DAANBR~1\AppData\Local\Temp/ccDgNm5v.s:39     .text:00000014 initSound
C:\Users\DAANBR~1\AppData\Local\Temp/ccDgNm5v.s:64     .text:0000002a StreamPlayer
C:\Users\DAANBR~1\AppData\Local\Temp/ccDgNm5v.s:181    .text:0000010e play
C:\Users\DAANBR~1\AppData\Local\Temp/ccDgNm5v.s:208    .text:0000012e triggerAlarm
C:\Users\DAANBR~1\AppData\Local\Temp/ccDgNm5v.s:247    .text:00000160 RingAlarm
C:\Users\DAANBR~1\AppData\Local\Temp/ccDgNm5v.s:236    .text:0000015a setVolume

UNDEFINED SYMBOLS
__do_copy_data
__do_clear_bss
VsPlayerInit
NutSegBufInit
VsPlayerInterrupts
NutSegBufReset
VsPlayerReset
NutSegBufWriteRequest
VsGetStatus
puts
VsPlayerKick
fread
NutSegBufWriteCommit
NutSleep
NutThreadCreate
VsSetVolume
VsBeep
